{
  "contractName": "Carrot",
  "abi": [
    {
      "anonymous": false,
      "inputs": [
        {
          "indexed": true,
          "internalType": "address",
          "name": "from",
          "type": "address"
        },
        {
          "indexed": true,
          "internalType": "uint256",
          "name": "vestingCarrotId",
          "type": "uint256"
        },
        {
          "indexed": false,
          "internalType": "uint256",
          "name": "amount",
          "type": "uint256"
        }
      ],
      "name": "Deposited",
      "type": "event"
    },
    {
      "anonymous": false,
      "inputs": [
        {
          "indexed": true,
          "internalType": "address",
          "name": "funder",
          "type": "address"
        },
        {
          "indexed": true,
          "internalType": "uint256",
          "name": "id",
          "type": "uint256"
        }
      ],
      "name": "FunderRegistered",
      "type": "event"
    },
    {
      "anonymous": false,
      "inputs": [
        {
          "indexed": true,
          "internalType": "address",
          "name": "recipient",
          "type": "address"
        },
        {
          "indexed": true,
          "internalType": "address",
          "name": "funder",
          "type": "address"
        },
        {
          "indexed": true,
          "internalType": "uint256",
          "name": "vestingCarrotId",
          "type": "uint256"
        }
      ],
      "name": "VestingCarrotMinted",
      "type": "event"
    },
    {
      "anonymous": false,
      "inputs": [
        {
          "indexed": true,
          "internalType": "address",
          "name": "to",
          "type": "address"
        },
        {
          "indexed": true,
          "internalType": "uint256",
          "name": "vestingCarrotId",
          "type": "uint256"
        },
        {
          "indexed": false,
          "internalType": "uint256",
          "name": "amount",
          "type": "uint256"
        }
      ],
      "name": "Withdrawn",
      "type": "event"
    },
    {
      "inputs": [
        {
          "internalType": "address",
          "name": "",
          "type": "address"
        },
        {
          "internalType": "uint256",
          "name": "",
          "type": "uint256"
        }
      ],
      "name": "adminFunders",
      "outputs": [
        {
          "internalType": "address",
          "name": "",
          "type": "address"
        }
      ],
      "stateMutability": "view",
      "type": "function"
    },
    {
      "inputs": [
        {
          "internalType": "address",
          "name": "",
          "type": "address"
        }
      ],
      "name": "funders",
      "outputs": [
        {
          "internalType": "uint256",
          "name": "id",
          "type": "uint256"
        },
        {
          "internalType": "address",
          "name": "funder",
          "type": "address"
        },
        {
          "internalType": "string",
          "name": "name",
          "type": "string"
        },
        {
          "internalType": "string",
          "name": "description",
          "type": "string"
        },
        {
          "internalType": "string",
          "name": "imageUrl",
          "type": "string"
        }
      ],
      "stateMutability": "view",
      "type": "function"
    },
    {
      "inputs": [
        {
          "internalType": "uint256",
          "name": "",
          "type": "uint256"
        }
      ],
      "name": "fundersList",
      "outputs": [
        {
          "internalType": "address",
          "name": "",
          "type": "address"
        }
      ],
      "stateMutability": "view",
      "type": "function"
    },
    {
      "inputs": [],
      "name": "nextVestingCarrotId",
      "outputs": [
        {
          "internalType": "uint256",
          "name": "",
          "type": "uint256"
        }
      ],
      "stateMutability": "view",
      "type": "function"
    },
    {
      "inputs": [
        {
          "internalType": "address",
          "name": "",
          "type": "address"
        },
        {
          "internalType": "uint256",
          "name": "",
          "type": "uint256"
        }
      ],
      "name": "recipientToVestingCarrotIds",
      "outputs": [
        {
          "internalType": "uint256",
          "name": "",
          "type": "uint256"
        }
      ],
      "stateMutability": "view",
      "type": "function"
    },
    {
      "inputs": [
        {
          "internalType": "uint256",
          "name": "",
          "type": "uint256"
        }
      ],
      "name": "vestingCarrots",
      "outputs": [
        {
          "internalType": "address",
          "name": "recipient",
          "type": "address"
        },
        {
          "internalType": "address",
          "name": "token",
          "type": "address"
        },
        {
          "internalType": "address",
          "name": "funder",
          "type": "address"
        },
        {
          "internalType": "uint256",
          "name": "id",
          "type": "uint256"
        },
        {
          "internalType": "uint256",
          "name": "startTime",
          "type": "uint256"
        },
        {
          "internalType": "uint256",
          "name": "vestingPeriodLength",
          "type": "uint256"
        },
        {
          "internalType": "uint256",
          "name": "amountPerPeriod",
          "type": "uint256"
        },
        {
          "internalType": "uint256",
          "name": "cliffTime",
          "type": "uint256"
        },
        {
          "internalType": "uint256",
          "name": "endTime",
          "type": "uint256"
        },
        {
          "internalType": "uint256",
          "name": "amountWithdrawn",
          "type": "uint256"
        },
        {
          "internalType": "uint256",
          "name": "balance",
          "type": "uint256"
        },
        {
          "internalType": "string",
          "name": "message",
          "type": "string"
        }
      ],
      "stateMutability": "view",
      "type": "function"
    },
    {
      "inputs": [
        {
          "internalType": "address[]",
          "name": "_admins",
          "type": "address[]"
        },
        {
          "internalType": "string",
          "name": "_name",
          "type": "string"
        },
        {
          "internalType": "string",
          "name": "_description",
          "type": "string"
        },
        {
          "internalType": "string",
          "name": "_imageUrl",
          "type": "string"
        }
      ],
      "name": "registerFunder",
      "outputs": [
        {
          "internalType": "uint256",
          "name": "",
          "type": "uint256"
        }
      ],
      "stateMutability": "nonpayable",
      "type": "function"
    },
    {
      "inputs": [
        {
          "internalType": "address",
          "name": "_recipient",
          "type": "address"
        },
        {
          "internalType": "address",
          "name": "_token",
          "type": "address"
        },
        {
          "internalType": "uint256",
          "name": "_startTime",
          "type": "uint256"
        },
        {
          "internalType": "uint256",
          "name": "_vestingPeriodLength",
          "type": "uint256"
        },
        {
          "internalType": "uint256",
          "name": "_amountPerPeriod",
          "type": "uint256"
        },
        {
          "internalType": "uint256",
          "name": "_cliffTime",
          "type": "uint256"
        },
        {
          "internalType": "uint256",
          "name": "_endTime",
          "type": "uint256"
        },
        {
          "internalType": "string",
          "name": "_message",
          "type": "string"
        }
      ],
      "name": "mintVestingCarrot",
      "outputs": [
        {
          "internalType": "uint256",
          "name": "",
          "type": "uint256"
        }
      ],
      "stateMutability": "nonpayable",
      "type": "function"
    },
    {
      "inputs": [
        {
          "internalType": "uint256[]",
          "name": "_vestingCarrotIds",
          "type": "uint256[]"
        },
        {
          "internalType": "uint256[]",
          "name": "_amounts",
          "type": "uint256[]"
        },
        {
          "internalType": "address[]",
          "name": "_tokenIds",
          "type": "address[]"
        }
      ],
      "name": "deposit",
      "outputs": [],
      "stateMutability": "payable",
      "type": "function"
    },
    {
      "inputs": [
        {
          "internalType": "uint256[]",
          "name": "_vestingCarrotIds",
          "type": "uint256[]"
        },
        {
          "internalType": "uint256[]",
          "name": "_amounts",
          "type": "uint256[]"
        }
      ],
      "name": "withdraw",
      "outputs": [],
      "stateMutability": "nonpayable",
      "type": "function"
    },
    {
      "inputs": [
        {
          "internalType": "uint256",
          "name": "carrotId",
          "type": "uint256"
        }
      ],
      "name": "terminateCarrot",
      "outputs": [],
      "stateMutability": "nonpayable",
      "type": "function"
    },
    {
      "inputs": [
        {
          "internalType": "address",
          "name": "_funder",
          "type": "address"
        }
      ],
      "name": "isFunder",
      "outputs": [
        {
          "internalType": "bool",
          "name": "",
          "type": "bool"
        }
      ],
      "stateMutability": "view",
      "type": "function"
    },
    {
      "inputs": [
        {
          "internalType": "uint256",
          "name": "_carrotId",
          "type": "uint256"
        }
      ],
      "name": "isCarrot",
      "outputs": [
        {
          "internalType": "bool",
          "name": "",
          "type": "bool"
        }
      ],
      "stateMutability": "view",
      "type": "function"
    },
    {
      "inputs": [],
      "name": "getFunderCount",
      "outputs": [
        {
          "internalType": "uint256",
          "name": "",
          "type": "uint256"
        }
      ],
      "stateMutability": "view",
      "type": "function"
    },
    {
      "inputs": [
        {
          "internalType": "address",
          "name": "_funder",
          "type": "address"
        }
      ],
      "name": "getCarrotCount",
      "outputs": [
        {
          "internalType": "uint256",
          "name": "",
          "type": "uint256"
        }
      ],
      "stateMutability": "view",
      "type": "function"
    },
    {
      "inputs": [],
      "name": "getCarrotCount",
      "outputs": [
        {
          "internalType": "uint256",
          "name": "",
          "type": "uint256"
        }
      ],
      "stateMutability": "view",
      "type": "function"
    },
    {
      "inputs": [
        {
          "internalType": "address",
          "name": "_funder",
          "type": "address"
        }
      ],
      "name": "getCarrotIds",
      "outputs": [
        {
          "internalType": "uint256[]",
          "name": "",
          "type": "uint256[]"
        }
      ],
      "stateMutability": "view",
      "type": "function"
    },
    {
      "inputs": [
        {
          "internalType": "uint256",
          "name": "_carrotId",
          "type": "uint256"
        }
      ],
      "name": "getBalance",
      "outputs": [
        {
          "internalType": "uint256",
          "name": "",
          "type": "uint256"
        }
      ],
      "stateMutability": "view",
      "type": "function"
    },
    {
      "inputs": [
        {
          "internalType": "address",
          "name": "_recipient",
          "type": "address"
        }
      ],
      "name": "getCarrotsByRecipient",
      "outputs": [
        {
          "internalType": "uint256[]",
          "name": "",
          "type": "uint256[]"
        }
      ],
      "stateMutability": "view",
      "type": "function"
    },
    {
      "inputs": [
        {
          "internalType": "address",
          "name": "_admin",
          "type": "address"
        }
      ],
      "name": "getFundersByAdmin",
      "outputs": [
        {
          "internalType": "address[]",
          "name": "",
          "type": "address[]"
        }
      ],
      "stateMutability": "view",
      "type": "function"
    }
  ],
  "bytecode": "0x608060405234801561001057600080fd5b50612537806100206000396000f3fe60806040526004361061011f5760003560e01c80637cb843c3116100a0578063a0882b5811610064578063a0882b5814610459578063b643550914610496578063bf797564146104d3578063c487f20b146104fe578063ce4d9f1e1461053b5761011f565b80637cb843c31461034e57806381c197ed1461038b5780638da949cc146103b45780639d40f801146103f15780639ed8cdf01461042e5761011f565b80631e010439116100e75780631e010439146102335780631ea4887014610270578063468ff211146102ad57806347ff62c6146102f557806362362761146103325761011f565b8063031b367714610124578063087c47b2146101655780631227ebc9146101a257806315a634d9146101df57806316f373b11461020a575b600080fd5b34801561013057600080fd5b5061014b6004803603810190610146919061190e565b610578565b60405161015c959493929190612244565b60405180910390f35b34801561017157600080fd5b5061018c60048036038101906101879190611c2f565b610766565b604051610199919061210e565b60405180910390f35b3480156101ae57600080fd5b506101c960048036038101906101c4919061190e565b610774565b6040516101d69190612229565b60405180910390f35b3480156101eb57600080fd5b506101f461080a565b6040516102019190612229565b60405180910390f35b34801561021657600080fd5b50610231600480360381019061022c9190611c2f565b610814565b005b34801561023f57600080fd5b5061025a60048036038101906102559190611c2f565b610817565b6040516102679190612229565b60405180910390f35b34801561027c57600080fd5b506102976004803603810190610292919061190e565b61087f565b6040516102a4919061210e565b60405180910390f35b3480156102b957600080fd5b506102d460048036038101906102cf9190611c2f565b610973565b6040516102ec9c9b9a99989796959493929190612009565b60405180910390f35b34801561030157600080fd5b5061031c60048036038101906103179190611c2f565b610abb565b6040516103299190611fee565b60405180910390f35b61034c60048036038101906103479190611b8b565b610afa565b005b34801561035a57600080fd5b5061037560048036038101906103709190611937565b610b02565b6040516103829190612229565b60405180910390f35b34801561039757600080fd5b506103b260048036038101906103ad9190611b16565b611041565b005b3480156103c057600080fd5b506103db60048036038101906103d69190611a05565b611047565b6040516103e89190611fee565b60405180910390f35b3480156103fd57600080fd5b506104186004803603810190610413919061190e565b611095565b60405161042591906120ec565b60405180910390f35b34801561043a57600080fd5b50610443611176565b6040516104509190612229565b60405180910390f35b34801561046557600080fd5b50610480600480360381019061047b919061190e565b611183565b60405161048d91906120ca565b60405180910390f35b3480156104a257600080fd5b506104bd60048036038101906104b89190611a05565b611250565b6040516104ca9190612229565b60405180910390f35b3480156104df57600080fd5b506104e8611281565b6040516104f59190612229565b60405180910390f35b34801561050a57600080fd5b506105256004803603810190610520919061190e565b611287565b60405161053291906120ec565b60405180910390f35b34801561054757600080fd5b50610562600480360381019061055d9190611a41565b61131e565b60405161056f9190612229565b60405180910390f35b60006020528060005260406000206000915090508060000154908060020160009054906101000a900473ffffffffffffffffffffffffffffffffffffffff16908060040180546105c7906123e9565b80601f01602080910402602001604051908101604052809291908181526020018280546105f3906123e9565b80156106405780601f1061061557610100808354040283529160200191610640565b820191906000526020600020905b81548152906001019060200180831161062357829003601f168201915b505050505090806005018054610655906123e9565b80601f0160208091040260200160405190810160405280929190818152602001828054610681906123e9565b80156106ce5780601f106106a3576101008083540402835291602001916106ce565b820191906000526020600020905b8154815290600101906020018083116106b157829003601f168201915b5050505050908060060180546106e3906123e9565b80601f016020809104026020016040519081016040528092919081815260200182805461070f906123e9565b801561075c5780601f106107315761010080835404028352916020019161075c565b820191906000526020600020905b81548152906001019060200180831161073f57829003601f168201915b5050505050905085565b600060035482109050919050565b600061077f8261087f565b6107be576040517f08c379a00000000000000000000000000000000000000000000000000000000081526004016107b590612189565b60405180910390fd5b6000808373ffffffffffffffffffffffffffffffffffffffff1673ffffffffffffffffffffffffffffffffffffffff168152602001908152602001600020600101805490509050919050565b6000600354905090565b50565b600061082282610766565b610861576040517f08c379a0000000000000000000000000000000000000000000000000000000008152600401610858906121e9565b60405180910390fd5b60026000838152602001908152602001600020600a01549050919050565b6000806001805490501415610897576000905061096e565b8173ffffffffffffffffffffffffffffffffffffffff1660016000808573ffffffffffffffffffffffffffffffffffffffff1673ffffffffffffffffffffffffffffffffffffffff1681526020019081526020016000206000015481548110610929577f4e487b7100000000000000000000000000000000000000000000000000000000600052603260045260246000fd5b9060005260206000200160009054906101000a900473ffffffffffffffffffffffffffffffffffffffff1673ffffffffffffffffffffffffffffffffffffffff161490505b919050565b60026020528060005260406000206000915090508060000160009054906101000a900473ffffffffffffffffffffffffffffffffffffffff16908060010160009054906101000a900473ffffffffffffffffffffffffffffffffffffffff16908060020160009054906101000a900473ffffffffffffffffffffffffffffffffffffffff169080600301549080600401549080600501549080600601549080600701549080600801549080600901549080600a01549080600b018054610a38906123e9565b80601f0160208091040260200160405190810160405280929190818152602001828054610a64906123e9565b8015610ab15780601f10610a8657610100808354040283529160200191610ab1565b820191906000526020600020905b815481529060010190602001808311610a9457829003601f168201915b505050505090508c565b60018181548110610acb57600080fd5b906000526020600020016000915054906101000a900473ffffffffffffffffffffffffffffffffffffffff1681565b505050505050565b6000610b0d3361087f565b610b4c576040517f08c379a0000000000000000000000000000000000000000000000000000000008152600401610b4390612209565b60405180910390fd5b42881015610b8f576040517f08c379a0000000000000000000000000000000000000000000000000000000008152600401610b86906121a9565b60405180910390fd5b42851015610bd2576040517f08c379a0000000000000000000000000000000000000000000000000000000008152600401610bc9906121c9565b60405180910390fd5b42841015610c15576040517f08c379a0000000000000000000000000000000000000000000000000000000008152600401610c0c90612129565b60405180910390fd5b8784610c21919061233a565b871115610c63576040517f08c379a0000000000000000000000000000000000000000000000000000000008152600401610c5a90612149565b60405180910390fd5b6040518061018001604052808b73ffffffffffffffffffffffffffffffffffffffff1681526020018a73ffffffffffffffffffffffffffffffffffffffff1681526020013373ffffffffffffffffffffffffffffffffffffffff1681526020016000803373ffffffffffffffffffffffffffffffffffffffff1673ffffffffffffffffffffffffffffffffffffffff168152602001908152602001600020600001548152602001898152602001888152602001878152602001868152602001858152602001600081526020016000815260200184848080601f016020809104026020016040519081016040528093929190818152602001838380828437600081840152601f19601f8201169050808301925050505050505081525060026000600354815260200190815260200160002060008201518160000160006101000a81548173ffffffffffffffffffffffffffffffffffffffff021916908373ffffffffffffffffffffffffffffffffffffffff16021790555060208201518160010160006101000a81548173ffffffffffffffffffffffffffffffffffffffff021916908373ffffffffffffffffffffffffffffffffffffffff16021790555060408201518160020160006101000a81548173ffffffffffffffffffffffffffffffffffffffff021916908373ffffffffffffffffffffffffffffffffffffffff160217905550606082015181600301556080820151816004015560a0820151816005015560c0820151816006015560e082015181600701556101008201518160080155610120820151816009015561014082015181600a015561016082015181600b019080519060200190610ed892919061163d565b509050506000803373ffffffffffffffffffffffffffffffffffffffff1673ffffffffffffffffffffffffffffffffffffffff1681526020019081526020016000206001016003549080600181540180825580915050600190039060005260206000200160009091909190915055600460008b73ffffffffffffffffffffffffffffffffffffffff1673ffffffffffffffffffffffffffffffffffffffff16815260200190815260200160002060035490806001815401808255809150506001900390600052602060002001600090919091909150556003543373ffffffffffffffffffffffffffffffffffffffff168b73ffffffffffffffffffffffffffffffffffffffff167f409912dc6b3587a329f6b7e3a22d96ef653f203581566f49ca218fa859e8624360405160405180910390a46003600081548092919061101e9061241b565b91905055506001600354611032919061233a565b90509998505050505050505050565b50505050565b6005602052816000526040600020818154811061106357600080fd5b906000526020600020016000915091509054906101000a900473ffffffffffffffffffffffffffffffffffffffff1681565b60606110a08261087f565b6110df576040517f08c379a00000000000000000000000000000000000000000000000000000000081526004016110d690612189565b60405180910390fd5b6000808373ffffffffffffffffffffffffffffffffffffffff1673ffffffffffffffffffffffffffffffffffffffff16815260200190815260200160002060010180548060200260200160405190810160405280929190818152602001828054801561116a57602002820191906000526020600020905b815481526020019060010190808311611156575b50505050509050919050565b6000600180549050905090565b6060600560008373ffffffffffffffffffffffffffffffffffffffff1673ffffffffffffffffffffffffffffffffffffffff16815260200190815260200160002080548060200260200160405190810160405280929190818152602001828054801561124457602002820191906000526020600020905b8160009054906101000a900473ffffffffffffffffffffffffffffffffffffffff1673ffffffffffffffffffffffffffffffffffffffff16815260200190600101908083116111fa575b50505050509050919050565b6004602052816000526040600020818154811061126c57600080fd5b90600052602060002001600091509150505481565b60035481565b6060600460008373ffffffffffffffffffffffffffffffffffffffff1673ffffffffffffffffffffffffffffffffffffffff16815260200190815260200160002080548060200260200160405190810160405280929190818152602001828054801561131257602002820191906000526020600020905b8154815260200190600101908083116112fe575b50505050509050919050565b60006113293361087f565b15611369576040517f08c379a000000000000000000000000000000000000000000000000000000000815260040161136090612169565b60405180910390fd5b6001339080600181540180825580915050600190039060005260206000200160009091909190916101000a81548173ffffffffffffffffffffffffffffffffffffffff021916908373ffffffffffffffffffffffffffffffffffffffff16021790555060008060003373ffffffffffffffffffffffffffffffffffffffff1673ffffffffffffffffffffffffffffffffffffffff16815260200190815260200160002090506001808054905061141f919061233a565b8160000181905550338160020160006101000a81548173ffffffffffffffffffffffffffffffffffffffff021916908373ffffffffffffffffffffffffffffffffffffffff160217905550898982600301919061147d9291906116c3565b508787826004019190611491929190611763565b5085858260050191906114a5929190611763565b5083838260060191906114b9929190611763565b5060005b8a8a90508110156115c857600560008c8c84818110611505577f4e487b7100000000000000000000000000000000000000000000000000000000600052603260045260246000fd5b905060200201602081019061151a919061190e565b73ffffffffffffffffffffffffffffffffffffffff1673ffffffffffffffffffffffffffffffffffffffff168152602001908152602001600020339080600181540180825580915050600190039060005260206000200160009091909190916101000a81548173ffffffffffffffffffffffffffffffffffffffff021916908373ffffffffffffffffffffffffffffffffffffffff16021790555080806115c09061241b565b9150506114bd565b50600180805490506115da919061233a565b3373ffffffffffffffffffffffffffffffffffffffff167fd0d5ddbd3fbe2332f0eac219be28f82cbea7f460e709aa07b5499759a269a1f360405160405180910390a36001808054905061162e919061233a565b91505098975050505050505050565b828054611649906123e9565b90600052602060002090601f01602090048101928261166b57600085556116b2565b82601f1061168457805160ff19168380011785556116b2565b828001600101855582156116b2579182015b828111156116b1578251825591602001919060010190611696565b5b5090506116bf91906117e9565b5090565b828054828255906000526020600020908101928215611752579160200282015b8281111561175157823573ffffffffffffffffffffffffffffffffffffffff168260006101000a81548173ffffffffffffffffffffffffffffffffffffffff021916908373ffffffffffffffffffffffffffffffffffffffff160217905550916020019190600101906116e3565b5b50905061175f91906117e9565b5090565b82805461176f906123e9565b90600052602060002090601f01602090048101928261179157600085556117d8565b82601f106117aa57803560ff19168380011785556117d8565b828001600101855582156117d8579182015b828111156117d75782358255916020019190600101906117bc565b5b5090506117e591906117e9565b5090565b5b808211156118025760008160009055506001016117ea565b5090565b600081359050611815816124d3565b92915050565b60008083601f84011261182d57600080fd5b8235905067ffffffffffffffff81111561184657600080fd5b60208301915083602082028301111561185e57600080fd5b9250929050565b60008083601f84011261187757600080fd5b8235905067ffffffffffffffff81111561189057600080fd5b6020830191508360208202830111156118a857600080fd5b9250929050565b60008083601f8401126118c157600080fd5b8235905067ffffffffffffffff8111156118da57600080fd5b6020830191508360018202830111156118f257600080fd5b9250929050565b600081359050611908816124ea565b92915050565b60006020828403121561192057600080fd5b600061192e84828501611806565b91505092915050565b60008060008060008060008060006101008a8c03121561195657600080fd5b60006119648c828d01611806565b99505060206119758c828d01611806565b98505060406119868c828d016118f9565b97505060606119978c828d016118f9565b96505060806119a88c828d016118f9565b95505060a06119b98c828d016118f9565b94505060c06119ca8c828d016118f9565b93505060e08a013567ffffffffffffffff8111156119e757600080fd5b6119f38c828d016118af565b92509250509295985092959850929598565b60008060408385031215611a1857600080fd5b6000611a2685828601611806565b9250506020611a37858286016118f9565b9150509250929050565b6000806000806000806000806080898b031215611a5d57600080fd5b600089013567ffffffffffffffff811115611a7757600080fd5b611a838b828c0161181b565b9850985050602089013567ffffffffffffffff811115611aa257600080fd5b611aae8b828c016118af565b9650965050604089013567ffffffffffffffff811115611acd57600080fd5b611ad98b828c016118af565b9450945050606089013567ffffffffffffffff811115611af857600080fd5b611b048b828c016118af565b92509250509295985092959890939650565b60008060008060408587031215611b2c57600080fd5b600085013567ffffffffffffffff811115611b4657600080fd5b611b5287828801611865565b9450945050602085013567ffffffffffffffff811115611b7157600080fd5b611b7d87828801611865565b925092505092959194509250565b60008060008060008060608789031215611ba457600080fd5b600087013567ffffffffffffffff811115611bbe57600080fd5b611bca89828a01611865565b9650965050602087013567ffffffffffffffff811115611be957600080fd5b611bf589828a01611865565b9450945050604087013567ffffffffffffffff811115611c1457600080fd5b611c2089828a0161181b565b92509250509295509295509295565b600060208284031215611c4157600080fd5b6000611c4f848285016118f9565b91505092915050565b6000611c648383611c88565b60208301905092915050565b6000611c7c8383611fd0565b60208301905092915050565b611c918161236e565b82525050565b611ca08161236e565b82525050565b6000611cb1826122cc565b611cbb8185612307565b9350611cc6836122ac565b8060005b83811015611cf7578151611cde8882611c58565b9750611ce9836122ed565b925050600181019050611cca565b5085935050505092915050565b6000611d0f826122d7565b611d198185612318565b9350611d24836122bc565b8060005b83811015611d55578151611d3c8882611c70565b9750611d47836122fa565b925050600181019050611d28565b5085935050505092915050565b611d6b81612380565b82525050565b6000611d7c826122e2565b611d868185612329565b9350611d968185602086016123b6565b611d9f816124c2565b840191505092915050565b6000611db7601783612329565b91507f456e642074696d6520697320696e2074686520706173740000000000000000006000830152602082019050919050565b6000611df7602683612329565b91507f56657374696e6720506572696f64206973206c6f6e676572207468616e20647560008301527f726174696f6e00000000000000000000000000000000000000000000000000006020830152604082019050919050565b6000611e5d601583612329565b91507f46756e64657220616c72656164792065786973747300000000000000000000006000830152602082019050919050565b6000611e9d600c83612329565b91507f4e6f7420612066756e64657200000000000000000000000000000000000000006000830152602082019050919050565b6000611edd601983612329565b91507f53746172742074696d6520697320696e207468652070617374000000000000006000830152602082019050919050565b6000611f1d601983612329565b91507f436c6966662074696d6520697320696e207468652070617374000000000000006000830152602082019050919050565b6000611f5d601583612329565b91507f436172726f7420646f6573206e6f7420657869737400000000000000000000006000830152602082019050919050565b6000611f9d601d83612329565b91507f4d7573742072656769737465722061732066756e6465722066697273740000006000830152602082019050919050565b611fd9816123ac565b82525050565b611fe8816123ac565b82525050565b60006020820190506120036000830184611c97565b92915050565b60006101808201905061201f600083018f611c97565b61202c602083018e611c97565b612039604083018d611c97565b612046606083018c611fdf565b612053608083018b611fdf565b61206060a083018a611fdf565b61206d60c0830189611fdf565b61207a60e0830188611fdf565b612088610100830187611fdf565b612096610120830186611fdf565b6120a4610140830185611fdf565b8181036101608301526120b78184611d71565b90509d9c50505050505050505050505050565b600060208201905081810360008301526120e48184611ca6565b905092915050565b600060208201905081810360008301526121068184611d04565b905092915050565b60006020820190506121236000830184611d62565b92915050565b6000602082019050818103600083015261214281611daa565b9050919050565b6000602082019050818103600083015261216281611dea565b9050919050565b6000602082019050818103600083015261218281611e50565b9050919050565b600060208201905081810360008301526121a281611e90565b9050919050565b600060208201905081810360008301526121c281611ed0565b9050919050565b600060208201905081810360008301526121e281611f10565b9050919050565b6000602082019050818103600083015261220281611f50565b9050919050565b6000602082019050818103600083015261222281611f90565b9050919050565b600060208201905061223e6000830184611fdf565b92915050565b600060a0820190506122596000830188611fdf565b6122666020830187611c97565b81810360408301526122788186611d71565b9050818103606083015261228c8185611d71565b905081810360808301526122a08184611d71565b90509695505050505050565b6000819050602082019050919050565b6000819050602082019050919050565b600081519050919050565b600081519050919050565b600081519050919050565b6000602082019050919050565b6000602082019050919050565b600082825260208201905092915050565b600082825260208201905092915050565b600082825260208201905092915050565b6000612345826123ac565b9150612350836123ac565b92508282101561236357612362612464565b5b828203905092915050565b60006123798261238c565b9050919050565b60008115159050919050565b600073ffffffffffffffffffffffffffffffffffffffff82169050919050565b6000819050919050565b60005b838110156123d45780820151818401526020810190506123b9565b838111156123e3576000848401525b50505050565b6000600282049050600182168061240157607f821691505b6020821081141561241557612414612493565b5b50919050565b6000612426826123ac565b91507fffffffffffffffffffffffffffffffffffffffffffffffffffffffffffffffff82141561245957612458612464565b5b600182019050919050565b7f4e487b7100000000000000000000000000000000000000000000000000000000600052601160045260246000fd5b7f4e487b7100000000000000000000000000000000000000000000000000000000600052602260045260246000fd5b6000601f19601f8301169050919050565b6124dc8161236e565b81146124e757600080fd5b50565b6124f3816123ac565b81146124fe57600080fd5b5056fea26469706673582212208afb7a4ab1a695b15fc407053c6b89d524b23b937bf7baf3e53c257811c8bd5964736f6c63430008000033",
  "immutableReferences": {},
  "source": "// SPDX-License-Identifier: GPL-3.0-only\npragma solidity ^0.8.0;\n// TODO: is 0.8.0 wise now that I've stopped return arrays of structs?\n\n/**\n * @title Carrot Contract\n * @author Will Hennessy\n */\ncontract Carrot {\n    \n    /// @dev Contract design follows the one-to-many model with one Funder related to many VestingCarrots\n    /// https://medium.com/robhitchens/enforcing-referential-integrity-in-ethereum-smart-contracts-a9ab1427ff42\n    \n    /// @notice Record details for a Funder. \n    /// @dev This could be a DAO multisig, an individual, or an organization.\n    /// @notice id - Internal ID of the funder\n    /// @notice carrotIds - IDs of all the VestingCarrots funded by this funder.\n    /// @notice funder - The wallet address who created this VestingCarrot and funds it. Only the funder can deposit funds into the VestingCarrot.\n    /// @notice admins - List of addresses with admin power to execute non-monetary write transactions such as create, modify, and propose deposit.\n    struct Funder {\n        uint id; // TODO // supports the delete function\n        uint[] carrotIds;\n        address funder;\n        address[] admins; // TODO: look into OpenZeppelin for the most secure way of handling admins.\n        string name;\n        string description;\n        string imageUrl;\n    }\n\n    /// @notice The Funder record corresponding to each address.\n    mapping (address => Funder) public funders;\n    /// @notice List of all funders who have ever created a carrot.\n    address[] public fundersList;\n\n    /**\n     * @notice Record details for a Vesting Carrot\n     * @notice funder - The address of the funder who created and deposits to this carrot.\n     * @notice startTime - The unix time at which vesting begins.\n     * @notice vestingPeriodLength - The period of time (in seconds) between each vesting event. Set to 0 for real-time vesting.\n     * @notice amountPerPeriod - The amount of token to vest to the recipient per period.\n     * @notice cliffTime - Prior to this unix timestamp, tokens are vesting but not able to be withdrawn by recipient until this timestamp.\n     * @notice endTime - The time at which vesting will stop.\n     * @notice amountWithdrawn - Cumulative amount of token that has been withrawn by recipient since startTime.\n     * @notice balance - Current balance of token deposited by the Funder and allocated to this Carrot. Some portion of these funds may have vested already, but not yet withdrawn.\n     * @notice message - Optional message for the Funder to use. For example, to explain the purpose of this vesting package.\n     */\n    struct VestingCarrot {\n        address recipient;\n        address token;\n        address funder;\n        uint id; // TODO - used to delete\n        uint startTime;\n        uint vestingPeriodLength;\n        uint amountPerPeriod;\n        uint cliffTime;\n        uint endTime;  // TODO:  can be infinite - how? 0? less than startTime? max uint?  do i even need this? maybe # of periods instead? - count how many passed already\n        uint amountWithdrawn;\n        uint balance; // TODO: can balance can be negative? (arrears) If Funder deposits while in this state, then contract should payout immediately.\n        string message;\n    }\n\n    /// @notice List of all VestingCarrots ordered by ID\n    mapping (uint => VestingCarrot) public vestingCarrots;\n    uint public nextVestingCarrotId;\n\n    /// @notice List of all VestingCarrots owned by a given address\n    mapping (address => uint[]) public recipientToVestingCarrotIds;\n\n    /// @notice adminFunders[admin] returns list of all Funders for whom admin is admin.\n    mapping (address => address[]) public adminFunders;\n    /// @notice admins[admin][funder] = true if user is an admin for this funder.\n    // mapping (address => mapping (address => bool)) public admins;\n\n\n    /// @notice An event thats emitted when a new Funder is registered\n    event FunderRegistered(address indexed funder, uint indexed id);\n    \n    /// @notice An event thats emitted when a new VestingCarrot is minted\n    event VestingCarrotMinted(address indexed recipient, address indexed funder, uint indexed vestingCarrotId);\n\n    /// @notice An event thats emitted when funds are deposited into the contract\n    event Deposited(address indexed from, uint indexed vestingCarrotId, uint amount);\n\n    /// @notice An event thats emitted when funds are withdrawn from the contract\n    event Withdrawn(address indexed to, uint indexed vestingCarrotId, uint amount);\n\n    // TODO: event FunderDeleted  (remember to only allow if zero carrots)\n    // TODO: event VestingCarrotTerminated\n\n    // TODO: event FunderUpdated\n    // TODO: event CarrotUpdated\n    \n    // TODO: think about event logging\n    // getPastEvents({ filter: funderId }) + fancy javascript math to calculate historicals\n    // getPastEvents({ filter: funderId }) + to get most recent transactions - might need additional lookup to get all data about each tx\n\n\n    /// @notice Register your address as a new Funder\n    function registerFunder(\n        address[] calldata _admins,\n        string calldata _name,\n        string calldata _description,\n        string calldata _imageUrl)\n    external returns (uint) {\n        require(!isFunder(msg.sender), \"Funder already exists\");\n        \n        fundersList.push(msg.sender);\n        Funder storage f = funders[msg.sender];\n        f.id = fundersList.length - 1;\n        // f.carrotIds is already init to an empty array.\n        f.funder = msg.sender;\n        f.admins = _admins;\n        f.name = _name;\n        f.description = _description;\n        f.imageUrl = _imageUrl;\n        \n        for (uint i = 0; i < _admins.length; i++) {\n            adminFunders[_admins[i]].push(msg.sender);\n        }\n\n        emit FunderRegistered(msg.sender, fundersList.length - 1);\n        return fundersList.length - 1;\n    }\n\n    /// @notice Mint a new Vesting Carrot with 0 balance.\n    function mintVestingCarrot(\n        address _recipient,\n        address _token,\n        uint _startTime,\n        uint _vestingPeriodLength,\n        uint _amountPerPeriod,\n        uint _cliffTime,\n        uint _endTime,\n        string calldata _message)\n    external returns (uint) {\n        require(isFunder(msg.sender), \"Must register as funder first\");\n        require(_startTime >= block.timestamp, \"Start time is in the past\");\n        require(_cliffTime >= block.timestamp, \"Cliff time is in the past\");\n        require(_endTime >= block.timestamp, \"End time is in the past\");\n        require(_vestingPeriodLength <= (_endTime - _startTime), \"Vesting Period is longer than duration\");\n        \n        vestingCarrots[nextVestingCarrotId] = VestingCarrot({\n            recipient: _recipient,\n            token: _token,\n            funder: msg.sender,\n            id: funders[msg.sender].id,\n            startTime: _startTime,\n            vestingPeriodLength: _vestingPeriodLength,\n            amountPerPeriod: _amountPerPeriod,\n            cliffTime: _cliffTime,\n            endTime: _endTime,\n            amountWithdrawn: 0,\n            balance: 0,\n            message: _message\n        });\n        \n        funders[msg.sender].carrotIds.push(nextVestingCarrotId);\n        recipientToVestingCarrotIds[_recipient].push(nextVestingCarrotId);\n        emit VestingCarrotMinted(_recipient, msg.sender, nextVestingCarrotId);\n        nextVestingCarrotId++;\n        return nextVestingCarrotId-1;\n    }\n\n    // @notice Deposit funds to N vesting carrots\n    function deposit(uint[] calldata _vestingCarrotIds, uint[] calldata _amounts, address[] calldata _tokenIds) external payable {\n        // TODO: modifier only funder\n        // require all three arrays are the same length\n        // for each entry, \n            // require creator is creator of this carrot\n            // transfer the funds into this contract\n            // add to balance. (if balance was negative, pay out immediately?)\n            // create an internal-only helper function that takes 1 of each param instead of array\n            // emit Deposited event (1 or N times?)\n    }\n\n    // @notice Withdraw funds from N vesting carrots\n    function withdraw(uint[] calldata _vestingCarrotIds, uint[] calldata _amounts) external {\n        // TODO: modifier only owner/recipient == msg.sender\n        // require amount is <= balance (even if user is owed more)\n        // helper function to calculate the latest vesting\n        // update the vesting variables to latest\n        // require amount is <= vested amount, less previous withdrawals\n        // execute the eth/ERC20 transfer\n        // update balance\n        // update amountWithdrawn\n        // emit Withdawn event\n    }\n    \n    // @notice Terminate a carrot\n    function terminateCarrot(uint carrotId) external {\n        // TODO: implement terminate\n        // consider deletion. Because zeros dont take up any space, storage can be reclaimed by setting a value to zero. This is incentivized in smart contracts with a gas refund when you change a value to zero.\n        // deletion tutorial: https://medium.com/@robhitchens/solidity-crud-part-2-ed8d8b4f74ec\n        // the one-to-many doc also references it, but points to the above for implmentation. https://medium.com/robhitchens/enforcing-referential-integrity-in-ethereum-smart-contracts-a9ab1427ff42\n        // TODO: emit Terminated event\n    }\n    \n    function isFunder(address _funder) public view returns (bool) {\n        if (fundersList.length == 0) return false;\n        return fundersList[funders[_funder].id] == _funder;\n    }\n    \n    function isCarrot(uint _carrotId) public view returns (bool) {\n        return _carrotId < nextVestingCarrotId;\n    }\n    \n    function getFunderCount() public view returns (uint) {\n        return fundersList.length;\n    }   \n    \n    function getCarrotCount() public view returns (uint) {\n        return nextVestingCarrotId;\n    }\n    \n    /// @notice Get the number of carrots created by the funder.    \n    function getCarrotCount(address _funder) public view returns (uint) {\n      require(isFunder(_funder), \"Not a funder\");\n      return funders[_funder].carrotIds.length;\n    }\n    \n    /// @notice Get all carrots created by the funder.\n    function getCarrotIds(address _funder) public view returns (uint[] memory) {\n      require(isFunder(_funder), \"Not a funder\");\n      return funders[_funder].carrotIds;\n    }\n\n    // @notice Get the balance of funder ID\n    function getBalance(uint _carrotId) public view returns (uint) {\n        require(isCarrot(_carrotId), \"Carrot does not exist\");\n        return vestingCarrots[_carrotId].balance;\n    }\n\n    /// @notice Get all carrots belonging to _recipient\n    function getCarrotsByRecipient(address _recipient) public view returns (uint[] memory) {\n        return recipientToVestingCarrotIds[_recipient];\n    }\n    \n    /// @notice Get all Funders for this _admin is admin\n    function getFundersByAdmin(address _admin) public view returns (address[] memory) {\n        return adminFunders[_admin];\n    }\n\n    // TODO: setters to update Funder metadata (name, image, admins, etc).\n    // require onlyFunder (or just msg.sender).\n    // can Admins perform edits?\n    // require name is not empty string\n    \n    // TODO: setters to update Carrot metadata\n    // be cautious how does this affect balances and vesting?\n}",
  "sourcePath": "/Users/willhennessy/compeer/contracts/compeer.sol",
  "compiler": {
    "name": "solc",
    "version": "0.8.0+commit.c7dfd78e.Emscripten.clang"
  },
  "schemaVersion": "3.3.3",
  "updatedAt": "2021-01-01T19:07:25.267Z",
  "devdoc": {
    "author": "Will Hennessy",
    "kind": "dev",
    "methods": {},
    "title": "Carrot Contract",
    "version": 1
  },
  "userdoc": {
    "events": {
      "Deposited(address,uint256,uint256)": {
        "notice": "An event thats emitted when funds are deposited into the contract"
      },
      "FunderRegistered(address,uint256)": {
        "notice": "An event thats emitted when a new Funder is registered"
      },
      "VestingCarrotMinted(address,address,uint256)": {
        "notice": "An event thats emitted when a new VestingCarrot is minted"
      },
      "Withdrawn(address,uint256,uint256)": {
        "notice": "An event thats emitted when funds are withdrawn from the contract"
      }
    },
    "kind": "user",
    "methods": {
      "adminFunders(address,uint256)": {
        "notice": "adminFunders[admin] returns list of all Funders for whom admin is admin."
      },
      "funders(address)": {
        "notice": "The Funder record corresponding to each address."
      },
      "fundersList(uint256)": {
        "notice": "List of all funders who have ever created a carrot."
      },
      "getCarrotCount(address)": {
        "notice": "Get the number of carrots created by the funder.    "
      },
      "getCarrotIds(address)": {
        "notice": "Get all carrots created by the funder."
      },
      "getCarrotsByRecipient(address)": {
        "notice": "Get all carrots belonging to _recipient"
      },
      "getFundersByAdmin(address)": {
        "notice": "Get all Funders for this _admin is admin"
      },
      "mintVestingCarrot(address,address,uint256,uint256,uint256,uint256,uint256,string)": {
        "notice": "Mint a new Vesting Carrot with 0 balance."
      },
      "recipientToVestingCarrotIds(address,uint256)": {
        "notice": "List of all VestingCarrots owned by a given address"
      },
      "registerFunder(address[],string,string,string)": {
        "notice": "Register your address as a new Funder"
      },
      "vestingCarrots(uint256)": {
        "notice": "List of all VestingCarrots ordered by ID"
      }
    },
    "version": 1
  }
}